{
  "contractName": "ICO",
  "abi": [
    {
      "inputs": [
        {
          "internalType": "string",
          "name": "name",
          "type": "string"
        },
        {
          "internalType": "string",
          "name": "symbol",
          "type": "string"
        },
        {
          "internalType": "uint8",
          "name": "decimals",
          "type": "uint8"
        },
        {
          "internalType": "uint256",
          "name": "totalSupply",
          "type": "uint256"
        }
      ],
      "stateMutability": "nonpayable",
      "type": "constructor"
    },
    {
      "inputs": [],
      "name": "admin",
      "outputs": [
        {
          "internalType": "address",
          "name": "",
          "type": "address"
        }
      ],
      "stateMutability": "view",
      "type": "function",
      "constant": true
    },
    {
      "inputs": [],
      "name": "availableTokens",
      "outputs": [
        {
          "internalType": "uint256",
          "name": "",
          "type": "uint256"
        }
      ],
      "stateMutability": "view",
      "type": "function",
      "constant": true
    },
    {
      "inputs": [],
      "name": "endDate",
      "outputs": [
        {
          "internalType": "uint256",
          "name": "",
          "type": "uint256"
        }
      ],
      "stateMutability": "view",
      "type": "function",
      "constant": true
    },
    {
      "inputs": [],
      "name": "initialPrice",
      "outputs": [
        {
          "internalType": "uint256",
          "name": "",
          "type": "uint256"
        }
      ],
      "stateMutability": "view",
      "type": "function",
      "constant": true
    },
    {
      "inputs": [
        {
          "internalType": "address",
          "name": "",
          "type": "address"
        }
      ],
      "name": "investors",
      "outputs": [
        {
          "internalType": "bool",
          "name": "",
          "type": "bool"
        }
      ],
      "stateMutability": "view",
      "type": "function",
      "constant": true
    },
    {
      "inputs": [],
      "name": "maxPurchase",
      "outputs": [
        {
          "internalType": "uint256",
          "name": "",
          "type": "uint256"
        }
      ],
      "stateMutability": "view",
      "type": "function",
      "constant": true
    },
    {
      "inputs": [],
      "name": "minPurchase",
      "outputs": [
        {
          "internalType": "uint256",
          "name": "",
          "type": "uint256"
        }
      ],
      "stateMutability": "view",
      "type": "function",
      "constant": true
    },
    {
      "inputs": [],
      "name": "released",
      "outputs": [
        {
          "internalType": "bool",
          "name": "",
          "type": "bool"
        }
      ],
      "stateMutability": "view",
      "type": "function",
      "constant": true
    },
    {
      "inputs": [
        {
          "internalType": "uint256",
          "name": "",
          "type": "uint256"
        }
      ],
      "name": "sales",
      "outputs": [
        {
          "internalType": "address",
          "name": "investor",
          "type": "address"
        },
        {
          "internalType": "uint256",
          "name": "quantity",
          "type": "uint256"
        }
      ],
      "stateMutability": "view",
      "type": "function",
      "constant": true
    },
    {
      "inputs": [],
      "name": "tokenAdress",
      "outputs": [
        {
          "internalType": "address",
          "name": "",
          "type": "address"
        }
      ],
      "stateMutability": "view",
      "type": "function",
      "constant": true
    },
    {
      "inputs": [
        {
          "internalType": "uint256",
          "name": "duration",
          "type": "uint256"
        },
        {
          "internalType": "uint256",
          "name": "price",
          "type": "uint256"
        },
        {
          "internalType": "uint256",
          "name": "tokenNumber",
          "type": "uint256"
        },
        {
          "internalType": "uint256",
          "name": "min",
          "type": "uint256"
        },
        {
          "internalType": "uint256",
          "name": "max",
          "type": "uint256"
        }
      ],
      "name": "start",
      "outputs": [],
      "stateMutability": "nonpayable",
      "type": "function"
    },
    {
      "inputs": [
        {
          "internalType": "address",
          "name": "investorAddress",
          "type": "address"
        }
      ],
      "name": "whitelist",
      "outputs": [],
      "stateMutability": "nonpayable",
      "type": "function"
    },
    {
      "inputs": [],
      "name": "buy",
      "outputs": [],
      "stateMutability": "payable",
      "type": "function",
      "payable": true
    },
    {
      "inputs": [],
      "name": "release",
      "outputs": [],
      "stateMutability": "nonpayable",
      "type": "function"
    },
    {
      "inputs": [
        {
          "internalType": "address payable",
          "name": "to",
          "type": "address"
        },
        {
          "internalType": "uint256",
          "name": "amount",
          "type": "uint256"
        }
      ],
      "name": "withdraw",
      "outputs": [],
      "stateMutability": "nonpayable",
      "type": "function"
    }
  ],
  "bytecode": "0x60806040523480156200001157600080fd5b50604051620032af380380620032af833981810160405281019062000037919062000325565b83838383604051620000499062000101565b62000058949392919062000454565b604051809103906000f08015801562000075573d6000803e3d6000fd5b50600260006101000a81548173ffffffffffffffffffffffffffffffffffffffff021916908373ffffffffffffffffffffffffffffffffffffffff16021790555033600360006101000a81548173ffffffffffffffffffffffffffffffffffffffff021916908373ffffffffffffffffffffffffffffffffffffffff16021790555050505050620004af565b6113748062001f3b83390190565b6000604051905090565b600080fd5b600080fd5b600080fd5b600080fd5b6000601f19601f8301169050919050565b7f4e487b7100000000000000000000000000000000000000000000000000000000600052604160045260246000fd5b62000178826200012d565b810181811067ffffffffffffffff821117156200019a57620001996200013e565b5b80604052505050565b6000620001af6200010f565b9050620001bd82826200016d565b919050565b600067ffffffffffffffff821115620001e057620001df6200013e565b5b620001eb826200012d565b9050602081019050919050565b60005b8381101562000218578082015181840152602081019050620001fb565b8381111562000228576000848401525b50505050565b6000620002456200023f84620001c2565b620001a3565b90508281526020810184848401111562000264576200026362000128565b5b62000271848285620001f8565b509392505050565b600082601f83011262000291576200029062000123565b5b8151620002a38482602086016200022e565b91505092915050565b600060ff82169050919050565b620002c481620002ac565b8114620002d057600080fd5b50565b600081519050620002e481620002b9565b92915050565b6000819050919050565b620002ff81620002ea565b81146200030b57600080fd5b50565b6000815190506200031f81620002f4565b92915050565b6000806000806080858703121562000342576200034162000119565b5b600085015167ffffffffffffffff8111156200036357620003626200011e565b5b620003718782880162000279565b945050602085015167ffffffffffffffff8111156200039557620003946200011e565b5b620003a38782880162000279565b9350506040620003b687828801620002d3565b9250506060620003c9878288016200030e565b91505092959194509250565b600081519050919050565b600082825260208201905092915050565b6000620003fe82620003d5565b6200040a8185620003e0565b93506200041c818560208601620001f8565b62000427816200012d565b840191505092915050565b6200043d81620002ac565b82525050565b6200044e81620002ea565b82525050565b60006080820190508181036000830152620004708187620003f1565b90508181036020830152620004868186620003f1565b905062000497604083018562000432565b620004a6606083018462000443565b95945050505050565b611a7c80620004bf6000396000f3fe6080604052600436106100e85760003560e01c806397c9c5a61161008a578063c24a0f8b11610059578063c24a0f8b146102b4578063d607b55b146102df578063f3fef3a314610308578063f851a44014610331576100e8565b806397c9c5a6146102185780639b19251a14610243578063a6f2ae3a1461026c578063b5f522f714610276576100e8565b80636f7bc9be116100c65780636f7bc9be1461016e57806386d1a69f146101ab57806396132521146101c2578063977b055b146101ed576100e8565b80631d0806ae146100ed57806333b5b62e1461011857806369bb4dc214610143575b600080fd5b3480156100f957600080fd5b5061010261035c565b60405161010f9190610eba565b60405180910390f35b34801561012457600080fd5b5061012d610362565b60405161013a9190610eba565b60405180910390f35b34801561014f57600080fd5b50610158610368565b6040516101659190610eba565b60405180910390f35b34801561017a57600080fd5b5061019560048036038101906101909190610f38565b61036e565b6040516101a29190610f80565b60405180910390f35b3480156101b757600080fd5b506101c061038e565b005b3480156101ce57600080fd5b506101d761060a565b6040516101e49190610f80565b60405180910390f35b3480156101f957600080fd5b5061020261061d565b60405161020f9190610eba565b60405180910390f35b34801561022457600080fd5b5061022d610623565b60405161023a9190610faa565b60405180910390f35b34801561024f57600080fd5b5061026a60048036038101906102659190610f38565b610649565b005b610274610733565b005b34801561028257600080fd5b5061029d60048036038101906102989190610ff1565b6109cc565b6040516102ab92919061101e565b60405180910390f35b3480156102c057600080fd5b506102c9610a20565b6040516102d69190610eba565b60405180910390f35b3480156102eb57600080fd5b5061030660048036038101906103019190611047565b610a26565b005b34801561031457600080fd5b5061032f600480360381019061032a9190611100565b610cea565b005b34801561033d57600080fd5b50610346610e7b565b6040516103539190610faa565b60405180910390f35b60055481565b60075481565b60065481565b60016020528060005260406000206000915054906101000a900460ff1681565b600360009054906101000a900473ffffffffffffffffffffffffffffffffffffffff1673ffffffffffffffffffffffffffffffffffffffff163373ffffffffffffffffffffffffffffffffffffffff161461041e576040517f08c379a00000000000000000000000000000000000000000000000000000000081526004016104159061119d565b60405180910390fd5b600060045411801561043f57506004544210158061043e57506000600654145b5b61047e576040517f08c379a000000000000000000000000000000000000000000000000000000000815260040161047590611209565b60405180910390fd5b60001515600960009054906101000a900460ff161515146104d4576040517f08c379a00000000000000000000000000000000000000000000000000000000081526004016104cb9061129b565b60405180910390fd5b6000600260009054906101000a900473ffffffffffffffffffffffffffffffffffffffff16905060005b6000805490508110156105eb5760008082815481106105205761051f6112bb565b5b906000526020600020906002020190508273ffffffffffffffffffffffffffffffffffffffff1663a9059cbb8260000160009054906101000a900473ffffffffffffffffffffffffffffffffffffffff1683600101546040518363ffffffff1660e01b815260040161059392919061101e565b6020604051808303816000875af11580156105b2573d6000803e3d6000fd5b505050506040513d601f19601f820116820180604052508101906105d69190611316565b505080806105e390611372565b9150506104fe565b506001600960006101000a81548160ff02191690831515021790555050565b600960009054906101000a900460ff1681565b60085481565b600260009054906101000a900473ffffffffffffffffffffffffffffffffffffffff1681565b600360009054906101000a900473ffffffffffffffffffffffffffffffffffffffff1673ffffffffffffffffffffffffffffffffffffffff163373ffffffffffffffffffffffffffffffffffffffff16146106d9576040517f08c379a00000000000000000000000000000000000000000000000000000000081526004016106d09061119d565b60405180910390fd5b60018060008373ffffffffffffffffffffffffffffffffffffffff1673ffffffffffffffffffffffffffffffffffffffff16815260200190815260200160002060006101000a81548160ff02191690831515021790555050565b60011515600160003373ffffffffffffffffffffffffffffffffffffffff1673ffffffffffffffffffffffffffffffffffffffff16815260200190815260200160002060009054906101000a900460ff161515146107c6576040517f08c379a00000000000000000000000000000000000000000000000000000000081526004016107bd90611407565b60405180910390fd5b60006004541180156107d9575060045442105b80156107e757506000600654115b610826576040517f08c379a000000000000000000000000000000000000000000000000000000000815260040161081d90611473565b60405180910390fd5b60006005543461083691906114c2565b14610876576040517f08c379a000000000000000000000000000000000000000000000000000000000815260040161086d90611565565b60405180910390fd5b600754341015801561088a57506008543411155b6108c9576040517f08c379a00000000000000000000000000000000000000000000000000000000081526004016108c0906115f7565b60405180910390fd5b6000600554346108d99190611617565b9050600654811115610920576040517f08c379a000000000000000000000000000000000000000000000000000000000815260040161091790611694565b60405180910390fd5b600060405180604001604052803373ffffffffffffffffffffffffffffffffffffffff16815260200183815250908060018154018082558091505060019003906000526020600020906002020160009091909190915060008201518160000160006101000a81548173ffffffffffffffffffffffffffffffffffffffff021916908373ffffffffffffffffffffffffffffffffffffffff16021790555060208201518160010155505050565b600081815481106109dc57600080fd5b90600052602060002090600202016000915090508060000160009054906101000a900473ffffffffffffffffffffffffffffffffffffffff16908060010154905082565b60045481565b600360009054906101000a900473ffffffffffffffffffffffffffffffffffffffff1673ffffffffffffffffffffffffffffffffffffffff163373ffffffffffffffffffffffffffffffffffffffff1614610ab6576040517f08c379a0000000000000000000000000000000000000000000000000000000008152600401610aad9061119d565b60405180910390fd5b600060045414610afb576040517f08c379a0000000000000000000000000000000000000000000000000000000008152600401610af290611700565b60405180910390fd5b60008511610b3e576040517f08c379a0000000000000000000000000000000000000000000000000000000008152600401610b3590611792565b60405180910390fd5b6000600260009054906101000a900473ffffffffffffffffffffffffffffffffffffffff1673ffffffffffffffffffffffffffffffffffffffff166318160ddd6040518163ffffffff1660e01b8152600401602060405180830381865afa158015610bad573d6000803e3d6000fd5b505050506040513d601f19601f82011682018060405250810190610bd191906117c7565b9050600084118015610be35750808411155b610c22576040517f08c379a0000000000000000000000000000000000000000000000000000000008152600401610c1990611866565b60405180910390fd5b60008311610c65576040517f08c379a0000000000000000000000000000000000000000000000000000000008152600401610c5c906118d2565b60405180910390fd5b600082118015610c755750838211155b610cb4576040517f08c379a0000000000000000000000000000000000000000000000000000000008152600401610cab90611964565b60405180910390fd5b4286610cc09190611984565b60048190555084600581905550836006819055508260078190555081600881905550505050505050565b600360009054906101000a900473ffffffffffffffffffffffffffffffffffffffff1673ffffffffffffffffffffffffffffffffffffffff163373ffffffffffffffffffffffffffffffffffffffff1614610d7a576040517f08c379a0000000000000000000000000000000000000000000000000000000008152600401610d719061119d565b60405180910390fd5b6000600454118015610d9b575060045442101580610d9a57506000600654145b5b610dda576040517f08c379a0000000000000000000000000000000000000000000000000000000008152600401610dd190611209565b60405180910390fd5b60011515600960009054906101000a900460ff16151514610e30576040517f08c379a0000000000000000000000000000000000000000000000000000000008152600401610e2790611a26565b60405180910390fd5b8173ffffffffffffffffffffffffffffffffffffffff166108fc829081150290604051600060405180830381858888f19350505050158015610e76573d6000803e3d6000fd5b505050565b600360009054906101000a900473ffffffffffffffffffffffffffffffffffffffff1681565b6000819050919050565b610eb481610ea1565b82525050565b6000602082019050610ecf6000830184610eab565b92915050565b600080fd5b600073ffffffffffffffffffffffffffffffffffffffff82169050919050565b6000610f0582610eda565b9050919050565b610f1581610efa565b8114610f2057600080fd5b50565b600081359050610f3281610f0c565b92915050565b600060208284031215610f4e57610f4d610ed5565b5b6000610f5c84828501610f23565b91505092915050565b60008115159050919050565b610f7a81610f65565b82525050565b6000602082019050610f956000830184610f71565b92915050565b610fa481610efa565b82525050565b6000602082019050610fbf6000830184610f9b565b92915050565b610fce81610ea1565b8114610fd957600080fd5b50565b600081359050610feb81610fc5565b92915050565b60006020828403121561100757611006610ed5565b5b600061101584828501610fdc565b91505092915050565b60006040820190506110336000830185610f9b565b6110406020830184610eab565b9392505050565b600080600080600060a0868803121561106357611062610ed5565b5b600061107188828901610fdc565b955050602061108288828901610fdc565b945050604061109388828901610fdc565b93505060606110a488828901610fdc565b92505060806110b588828901610fdc565b9150509295509295909350565b60006110cd82610eda565b9050919050565b6110dd816110c2565b81146110e857600080fd5b50565b6000813590506110fa816110d4565b92915050565b6000806040838503121561111757611116610ed5565b5b6000611125858286016110eb565b925050602061113685828601610fdc565b9150509250929050565b600082825260208201905092915050565b7f4f6e6c792061646d696e20616374696f6e2e0000000000000000000000000000600082015250565b6000611187601283611140565b915061119282611151565b602082019050919050565b600060208201905081810360008301526111b68161117a565b9050919050565b7f49434f206d757374206861766520656e6465642e000000000000000000000000600082015250565b60006111f3601483611140565b91506111fe826111bd565b602082019050919050565b60006020820190508181036000830152611222816111e6565b9050919050565b7f546f6b656e73206d757374204e4f542068617665206265656e2072656c65617360008201527f65642e0000000000000000000000000000000000000000000000000000000000602082015250565b6000611285602383611140565b915061129082611229565b604082019050919050565b600060208201905081810360008301526112b481611278565b9050919050565b7f4e487b7100000000000000000000000000000000000000000000000000000000600052603260045260246000fd5b6112f381610f65565b81146112fe57600080fd5b50565b600081519050611310816112ea565b92915050565b60006020828403121561132c5761132b610ed5565b5b600061133a84828501611301565b91505092915050565b7f4e487b7100000000000000000000000000000000000000000000000000000000600052601160045260246000fd5b600061137d82610ea1565b91507fffffffffffffffffffffffffffffffffffffffffffffffffffffffffffffffff8214156113b0576113af611343565b5b600182019050919050565b7f4f6e6c7920696e766573746f7220616374696f6e2e0000000000000000000000600082015250565b60006113f1601583611140565b91506113fc826113bb565b602082019050919050565b60006020820190508181036000830152611420816113e4565b9050919050565b7f49434f206d757374206265206163746976652e00000000000000000000000000600082015250565b600061145d601383611140565b915061146882611427565b602082019050919050565b6000602082019050818103600083015261148c81611450565b9050919050565b7f4e487b7100000000000000000000000000000000000000000000000000000000600052601260045260246000fd5b60006114cd82610ea1565b91506114d883610ea1565b9250826114e8576114e7611493565b5b828206905092915050565b7f4861766520746f2073656e642061206d756c7469706c65206f6620746865207060008201527f726963652e000000000000000000000000000000000000000000000000000000602082015250565b600061154f602583611140565b915061155a826114f3565b604082019050919050565b6000602082019050818103600083015261157e81611542565b9050919050565b7f4861766520746f2073656e64206265747765656e206d696e507572636861736560008201527f20616e64206d617850757263686173652e000000000000000000000000000000602082015250565b60006115e1603183611140565b91506115ec82611585565b604082019050919050565b60006020820190508181036000830152611610816115d4565b9050919050565b600061162282610ea1565b915061162d83610ea1565b92508261163d5761163c611493565b5b828204905092915050565b7f4e6f7420656e6f75676820746f6b656e73206c65667420666f722073616c652e600082015250565b600061167e602083611140565b915061168982611648565b602082019050919050565b600060208201905081810360008301526116ad81611671565b9050919050565b7f49434f2073686f756c64206e6f74206265206163746976652e00000000000000600082015250565b60006116ea601983611140565b91506116f5826116b4565b602082019050919050565b60006020820190508181036000830152611719816116dd565b9050919050565b7f4475726174696f6e2073686f756c6420626520626967676572207468616e203060008201527f2e00000000000000000000000000000000000000000000000000000000000000602082015250565b600061177c602183611140565b915061178782611720565b604082019050919050565b600060208201905081810360008301526117ab8161176f565b9050919050565b6000815190506117c181610fc5565b92915050565b6000602082840312156117dd576117dc610ed5565b5b60006117eb848285016117b2565b91505092915050565b7f417661696c61626c6520746f6b656e732073686f756c64206265203e2030206160008201527f6e64203c3d20746f74616c537570706c792e0000000000000000000000000000602082015250565b6000611850603283611140565b915061185b826117f4565b604082019050919050565b6000602082019050818103600083015261187f81611843565b9050919050565b7f4d696e2073686f756c6420626520626967676572207468616e20302e00000000600082015250565b60006118bc601c83611140565b91506118c782611886565b602082019050919050565b600060208201905081810360008301526118eb816118af565b9050919050565b7f4d61782073686f756c64206265203e203020616e64203c3d20617661696c616260008201527f6c65546f6b656e732e0000000000000000000000000000000000000000000000602082015250565b600061194e602983611140565b9150611959826118f2565b604082019050919050565b6000602082019050818103600083015261197d81611941565b9050919050565b600061198f82610ea1565b915061199a83610ea1565b9250827fffffffffffffffffffffffffffffffffffffffffffffffffffffffffffffffff038211156119cf576119ce611343565b5b828201905092915050565b7f546f6b656e73206d7573742068617665206265656e2072656c65617365642e00600082015250565b6000611a10601f83611140565b9150611a1b826119da565b602082019050919050565b60006020820190508181036000830152611a3f81611a03565b905091905056fea26469706673582212201bc49697aa78a593d843cb929b2bae68e85d19b69f14871082f4fc223a0a052564736f6c634300080b003360806040523480156200001157600080fd5b50604051620013743803806200137483398181016040528101906200003791906200039f565b83600090805190602001906200004f929190620000d9565b50826001908051906020019062000068929190620000d9565b5081600260006101000a81548160ff021916908360ff1602179055508060038190555080600460003373ffffffffffffffffffffffffffffffffffffffff1673ffffffffffffffffffffffffffffffffffffffff1681526020019081526020016000208190555050505050620004b4565b828054620000e7906200047e565b90600052602060002090601f0160209004810192826200010b576000855562000157565b82601f106200012657805160ff191683800117855562000157565b8280016001018555821562000157579182015b828111156200015657825182559160200191906001019062000139565b5b5090506200016691906200016a565b5090565b5b80821115620001855760008160009055506001016200016b565b5090565b6000604051905090565b600080fd5b600080fd5b600080fd5b600080fd5b6000601f19601f8301169050919050565b7f4e487b7100000000000000000000000000000000000000000000000000000000600052604160045260246000fd5b620001f282620001a7565b810181811067ffffffffffffffff82111715620002145762000213620001b8565b5b80604052505050565b60006200022962000189565b9050620002378282620001e7565b919050565b600067ffffffffffffffff8211156200025a5762000259620001b8565b5b6200026582620001a7565b9050602081019050919050565b60005b838110156200029257808201518184015260208101905062000275565b83811115620002a2576000848401525b50505050565b6000620002bf620002b9846200023c565b6200021d565b905082815260208101848484011115620002de57620002dd620001a2565b5b620002eb84828562000272565b509392505050565b600082601f8301126200030b576200030a6200019d565b5b81516200031d848260208601620002a8565b91505092915050565b600060ff82169050919050565b6200033e8162000326565b81146200034a57600080fd5b50565b6000815190506200035e8162000333565b92915050565b6000819050919050565b620003798162000364565b81146200038557600080fd5b50565b60008151905062000399816200036e565b92915050565b60008060008060808587031215620003bc57620003bb62000193565b5b600085015167ffffffffffffffff811115620003dd57620003dc62000198565b5b620003eb87828801620002f3565b945050602085015167ffffffffffffffff8111156200040f576200040e62000198565b5b6200041d87828801620002f3565b935050604062000430878288016200034d565b9250506060620004438782880162000388565b91505092959194509250565b7f4e487b7100000000000000000000000000000000000000000000000000000000600052602260045260246000fd5b600060028204905060018216806200049757607f821691505b60208210811415620004ae57620004ad6200044f565b5b50919050565b610eb080620004c46000396000f3fe608060405234801561001057600080fd5b50600436106100a95760003560e01c8063313ce56711610071578063313ce5671461017a5780635c6581651461019857806370a08231146101c857806395d89b41146101f8578063a9059cbb14610216578063dd62ed3e14610246576100a9565b806306fdde03146100ae578063095ea7b3146100cc57806318160ddd146100fc57806323b872dd1461011a57806327e235e31461014a575b600080fd5b6100b6610276565b6040516100c39190610aa2565b60405180910390f35b6100e660048036038101906100e19190610b5d565b610304565b6040516100f39190610bb8565b60405180910390f35b6101046103f6565b6040516101119190610be2565b60405180910390f35b610134600480360381019061012f9190610bfd565b6103fc565b6040516101419190610bb8565b60405180910390f35b610164600480360381019061015f9190610c50565b6106bc565b6040516101719190610be2565b60405180910390f35b6101826106d4565b60405161018f9190610c99565b60405180910390f35b6101b260048036038101906101ad9190610cb4565b6106e7565b6040516101bf9190610be2565b60405180910390f35b6101e260048036038101906101dd9190610c50565b61070c565b6040516101ef9190610be2565b60405180910390f35b610200610755565b60405161020d9190610aa2565b60405180910390f35b610230600480360381019061022b9190610b5d565b6107e3565b60405161023d9190610bb8565b60405180910390f35b610260600480360381019061025b9190610cb4565b610982565b60405161026d9190610be2565b60405180910390f35b6000805461028390610d23565b80601f01602080910402602001604051908101604052809291908181526020018280546102af90610d23565b80156102fc5780601f106102d1576101008083540402835291602001916102fc565b820191906000526020600020905b8154815290600101906020018083116102df57829003601f168201915b505050505081565b600081600560003373ffffffffffffffffffffffffffffffffffffffff1673ffffffffffffffffffffffffffffffffffffffff16815260200190815260200160002060008573ffffffffffffffffffffffffffffffffffffffff1673ffffffffffffffffffffffffffffffffffffffff168152602001908152602001600020819055508273ffffffffffffffffffffffffffffffffffffffff163373ffffffffffffffffffffffffffffffffffffffff167f8c5be1e5ebec7d5bd14f71427d1e84f3dd0314c0f7b2291e5b200ac8c7c3b925846040516103e49190610be2565b60405180910390a36001905092915050565b60035481565b600080600560008673ffffffffffffffffffffffffffffffffffffffff1673ffffffffffffffffffffffffffffffffffffffff16815260200190815260200160002060003373ffffffffffffffffffffffffffffffffffffffff1673ffffffffffffffffffffffffffffffffffffffff16815260200190815260200160002054905082600460008773ffffffffffffffffffffffffffffffffffffffff1673ffffffffffffffffffffffffffffffffffffffff16815260200190815260200160002054101580156104cd5750828110155b61050c576040517f08c379a000000000000000000000000000000000000000000000000000000000815260040161050390610da1565b60405180910390fd5b82600560008773ffffffffffffffffffffffffffffffffffffffff1673ffffffffffffffffffffffffffffffffffffffff16815260200190815260200160002060003373ffffffffffffffffffffffffffffffffffffffff1673ffffffffffffffffffffffffffffffffffffffff16815260200190815260200160002060008282546105989190610df0565b9250508190555082600460008773ffffffffffffffffffffffffffffffffffffffff1673ffffffffffffffffffffffffffffffffffffffff16815260200190815260200160002060008282546105ee9190610df0565b9250508190555082600460008673ffffffffffffffffffffffffffffffffffffffff1673ffffffffffffffffffffffffffffffffffffffff16815260200190815260200160002060008282546106449190610e24565b925050819055508373ffffffffffffffffffffffffffffffffffffffff168573ffffffffffffffffffffffffffffffffffffffff167fddf252ad1be2c89b69c2b068fc378daa952ba7f163c4a11628f55a4df523b3ef856040516106a89190610be2565b60405180910390a360019150509392505050565b60046020528060005260406000206000915090505481565b600260009054906101000a900460ff1681565b6005602052816000526040600020602052806000526040600020600091509150505481565b6000600460008373ffffffffffffffffffffffffffffffffffffffff1673ffffffffffffffffffffffffffffffffffffffff168152602001908152602001600020549050919050565b6001805461076290610d23565b80601f016020809104026020016040519081016040528092919081815260200182805461078e90610d23565b80156107db5780601f106107b0576101008083540402835291602001916107db565b820191906000526020600020905b8154815290600101906020018083116107be57829003601f168201915b505050505081565b600081600460003373ffffffffffffffffffffffffffffffffffffffff1673ffffffffffffffffffffffffffffffffffffffff168152602001908152602001600020541015610867576040517f08c379a000000000000000000000000000000000000000000000000000000000815260040161085e90610da1565b60405180910390fd5b81600460003373ffffffffffffffffffffffffffffffffffffffff1673ffffffffffffffffffffffffffffffffffffffff16815260200190815260200160002060008282546108b69190610df0565b9250508190555081600460008573ffffffffffffffffffffffffffffffffffffffff1673ffffffffffffffffffffffffffffffffffffffff168152602001908152602001600020600082825461090c9190610e24565b925050819055508273ffffffffffffffffffffffffffffffffffffffff163373ffffffffffffffffffffffffffffffffffffffff167fddf252ad1be2c89b69c2b068fc378daa952ba7f163c4a11628f55a4df523b3ef846040516109709190610be2565b60405180910390a36001905092915050565b6000600560008473ffffffffffffffffffffffffffffffffffffffff1673ffffffffffffffffffffffffffffffffffffffff16815260200190815260200160002060008373ffffffffffffffffffffffffffffffffffffffff1673ffffffffffffffffffffffffffffffffffffffff16815260200190815260200160002054905092915050565b600081519050919050565b600082825260208201905092915050565b60005b83811015610a43578082015181840152602081019050610a28565b83811115610a52576000848401525b50505050565b6000601f19601f8301169050919050565b6000610a7482610a09565b610a7e8185610a14565b9350610a8e818560208601610a25565b610a9781610a58565b840191505092915050565b60006020820190508181036000830152610abc8184610a69565b905092915050565b600080fd5b600073ffffffffffffffffffffffffffffffffffffffff82169050919050565b6000610af482610ac9565b9050919050565b610b0481610ae9565b8114610b0f57600080fd5b50565b600081359050610b2181610afb565b92915050565b6000819050919050565b610b3a81610b27565b8114610b4557600080fd5b50565b600081359050610b5781610b31565b92915050565b60008060408385031215610b7457610b73610ac4565b5b6000610b8285828601610b12565b9250506020610b9385828601610b48565b9150509250929050565b60008115159050919050565b610bb281610b9d565b82525050565b6000602082019050610bcd6000830184610ba9565b92915050565b610bdc81610b27565b82525050565b6000602082019050610bf76000830184610bd3565b92915050565b600080600060608486031215610c1657610c15610ac4565b5b6000610c2486828701610b12565b9350506020610c3586828701610b12565b9250506040610c4686828701610b48565b9150509250925092565b600060208284031215610c6657610c65610ac4565b5b6000610c7484828501610b12565b91505092915050565b600060ff82169050919050565b610c9381610c7d565b82525050565b6000602082019050610cae6000830184610c8a565b92915050565b60008060408385031215610ccb57610cca610ac4565b5b6000610cd985828601610b12565b9250506020610cea85828601610b12565b9150509250929050565b7f4e487b7100000000000000000000000000000000000000000000000000000000600052602260045260246000fd5b60006002820490506001821680610d3b57607f821691505b60208210811415610d4f57610d4e610cf4565b5b50919050565b7f546f6b656e2062616c616e636520746f6f206c6f772e00000000000000000000600082015250565b6000610d8b601683610a14565b9150610d9682610d55565b602082019050919050565b60006020820190508181036000830152610dba81610d7e565b9050919050565b7f4e487b7100000000000000000000000000000000000000000000000000000000600052601160045260246000fd5b6000610dfb82610b27565b9150610e0683610b27565b925082821015610e1957610e18610dc1565b5b828203905092915050565b6000610e2f82610b27565b9150610e3a83610b27565b9250827fffffffffffffffffffffffffffffffffffffffffffffffffffffffffffffffff03821115610e6f57610e6e610dc1565b5b82820190509291505056fea26469706673582212207aa8754341fc51c8ebc4b45d650946c4ca0735acacdca021d5446bde3655ffd564736f6c634300080b0033",
  "immutableReferences": {},
  "source": "// SPDX-License-Identifier: MIT\npragma solidity >=0.4.22 <0.9.0;\n\nimport { ERC20Token } from './ERC20Token.sol';\n\ncontract ICO {\n  struct Sale {\n    address investor;\n    uint quantity;\n  }\n  Sale[] public sales;\n  mapping(address => bool) public investors;\n  address public tokenAdress;\n  address public admin;\n  uint public endDate;\n  uint public initialPrice;\n  uint public availableTokens;\n  uint public minPurchase;\n  uint public maxPurchase;\n  bool public released;\n\n  constructor(string memory name, string memory symbol, uint8 decimals, uint totalSupply) {\n    tokenAdress = address(new ERC20Token(name, symbol, decimals, totalSupply));\n    admin = msg.sender;\n  }\n\n  function start (uint duration, uint price, uint tokenNumber, uint min, uint max) external onlyAdmin() icoNotActive() {\n    require(duration > 0, 'Duration should be bigger than 0.');\n    uint totalSupply = ERC20Token(tokenAdress).totalSupply();\n    require(tokenNumber > 0 && tokenNumber <= totalSupply, 'Available tokens should be > 0 and <= totalSupply.');\n    require(min > 0, 'Min should be bigger than 0.');\n    require(max > 0 && max <= tokenNumber, 'Max should be > 0 and <= availableTokens.');\n    endDate = duration + block.timestamp;\n    initialPrice = price;\n    availableTokens = tokenNumber;\n    minPurchase = min;\n    maxPurchase = max;\n  }\n\n  function whitelist(address investorAddress) external onlyAdmin() {\n    investors[investorAddress] = true;\n  }\n\n  function buy() payable external onlyInvestors() icoActive() {\n    require(msg.value % initialPrice == 0, 'Have to send a multiple of the price.');\n    require(msg.value >= minPurchase && msg.value <= maxPurchase, 'Have to send between minPurchase and maxPurchase.');\n    uint quantity = msg.value / initialPrice;\n    require(quantity <= availableTokens, 'Not enough tokens left for sale.');\n    sales.push(Sale(msg.sender, quantity));\n  }\n\n  function release() external onlyAdmin() icoEnded() tokensNotReleased() {\n    ERC20Token tokenInstance = ERC20Token(tokenAdress);\n    for (uint i = 0; i < sales.length; i++) {\n      Sale storage sale = sales[i];\n      tokenInstance.transfer(sale.investor, sale.quantity);\n    }\n    released = true;\n  }\n\n  function withdraw(address payable to, uint amount) external onlyAdmin() icoEnded() tokensReleased() {\n    to.transfer(amount);\n  }\n\n  modifier icoActive() {\n    require(endDate > 0 && block.timestamp < endDate && availableTokens > 0, \"ICO must be active.\");\n    _;\n  }\n    \n  modifier icoNotActive() {\n    require(endDate == 0, 'ICO should not be active.');\n    _;\n  }\n    \n  modifier icoEnded() {\n    require(endDate > 0 && (block.timestamp >= endDate || availableTokens == 0), 'ICO must have ended.');\n    _;\n  }\n    \n  modifier tokensNotReleased() {\n    require(released == false, 'Tokens must NOT have been released.');\n    _;\n  }\n    \n  modifier tokensReleased() {\n    require(released == true, 'Tokens must have been released.');\n    _;\n  }\n    \n  modifier onlyInvestors() {\n    require(investors[msg.sender] == true, 'Only investor action.');\n    _;\n  }\n    \n  modifier onlyAdmin() {\n    require(msg.sender == admin, 'Only admin action.');\n    _;\n  }\n}\n",
  "sourcePath": "/var/www/html/dapp30/ico/contracts/ICO.sol",
  "compiler": {
    "name": "solc",
    "version": "0.8.11+commit.d7f03943.Emscripten.clang"
  },
  "schemaVersion": "3.4.4",
  "updatedAt": "2022-08-10T09:40:41.725Z",
  "networkType": "ethereum",
  "devdoc": {
    "kind": "dev",
    "methods": {},
    "version": 1
  },
  "userdoc": {
    "kind": "user",
    "methods": {},
    "version": 1
  }
}